{
  "_format": "hh-sol-artifact-1",
  "contractName": "JaneDoe",
  "sourceName": "contracts/JaneDoe.sol",
  "abi": [
    {
      "inputs": [
        {
          "internalType": "string",
          "name": "uri_",
          "type": "string"
        },
        {
          "internalType": "address",
          "name": "wrappedNativeAddress_",
          "type": "address"
        }
      ],
      "stateMutability": "nonpayable",
      "type": "constructor"
    },
    {
      "anonymous": false,
      "inputs": [
        {
          "indexed": true,
          "internalType": "address",
          "name": "account",
          "type": "address"
        },
        {
          "indexed": true,
          "internalType": "address",
          "name": "operator",
          "type": "address"
        },
        {
          "indexed": false,
          "internalType": "bool",
          "name": "approved",
          "type": "bool"
        }
      ],
      "name": "ApprovalForAll",
      "type": "event"
    },
    {
      "anonymous": false,
      "inputs": [
        {
          "indexed": false,
          "internalType": "uint256",
          "name": "dt",
          "type": "uint256"
        },
        {
          "indexed": false,
          "internalType": "address",
          "name": "from",
          "type": "address"
        },
        {
          "indexed": true,
          "internalType": "address",
          "name": "to",
          "type": "address"
        },
        {
          "indexed": false,
          "internalType": "address",
          "name": "token",
          "type": "address"
        },
        {
          "indexed": false,
          "internalType": "uint256",
          "name": "amount",
          "type": "uint256"
        },
        {
          "indexed": false,
          "internalType": "bytes",
          "name": "paymentId",
          "type": "bytes"
        }
      ],
      "name": "PayFrom",
      "type": "event"
    },
    {
      "anonymous": false,
      "inputs": [
        {
          "indexed": true,
          "internalType": "address",
          "name": "operator",
          "type": "address"
        },
        {
          "indexed": true,
          "internalType": "address",
          "name": "from",
          "type": "address"
        },
        {
          "indexed": true,
          "internalType": "address",
          "name": "to",
          "type": "address"
        },
        {
          "indexed": false,
          "internalType": "uint256[]",
          "name": "ids",
          "type": "uint256[]"
        },
        {
          "indexed": false,
          "internalType": "uint256[]",
          "name": "values",
          "type": "uint256[]"
        }
      ],
      "name": "TransferBatch",
      "type": "event"
    },
    {
      "anonymous": false,
      "inputs": [
        {
          "indexed": true,
          "internalType": "address",
          "name": "operator",
          "type": "address"
        },
        {
          "indexed": true,
          "internalType": "address",
          "name": "from",
          "type": "address"
        },
        {
          "indexed": true,
          "internalType": "address",
          "name": "to",
          "type": "address"
        },
        {
          "indexed": false,
          "internalType": "uint256",
          "name": "id",
          "type": "uint256"
        },
        {
          "indexed": false,
          "internalType": "uint256",
          "name": "value",
          "type": "uint256"
        }
      ],
      "name": "TransferSingle",
      "type": "event"
    },
    {
      "anonymous": false,
      "inputs": [
        {
          "indexed": false,
          "internalType": "string",
          "name": "value",
          "type": "string"
        },
        {
          "indexed": true,
          "internalType": "uint256",
          "name": "id",
          "type": "uint256"
        }
      ],
      "name": "URI",
      "type": "event"
    },
    {
      "anonymous": false,
      "inputs": [
        {
          "indexed": false,
          "internalType": "uint256",
          "name": "dt",
          "type": "uint256"
        },
        {
          "indexed": false,
          "internalType": "address",
          "name": "to",
          "type": "address"
        },
        {
          "indexed": false,
          "internalType": "address",
          "name": "token",
          "type": "address"
        },
        {
          "indexed": false,
          "internalType": "uint256",
          "name": "amount",
          "type": "uint256"
        }
      ],
      "name": "WithdrawTo",
      "type": "event"
    },
    {
      "anonymous": false,
      "inputs": [
        {
          "indexed": false,
          "internalType": "uint256",
          "name": "dt",
          "type": "uint256"
        },
        {
          "indexed": false,
          "internalType": "address[]",
          "name": "accounts",
          "type": "address[]"
        },
        {
          "indexed": false,
          "internalType": "address[]",
          "name": "tokens",
          "type": "address[]"
        },
        {
          "indexed": false,
          "internalType": "uint256[]",
          "name": "amounts",
          "type": "uint256[]"
        }
      ],
      "name": "WithdrawToBatch",
      "type": "event"
    },
    {
      "inputs": [
        {
          "internalType": "address",
          "name": "account",
          "type": "address"
        },
        {
          "internalType": "uint256",
          "name": "id",
          "type": "uint256"
        }
      ],
      "name": "balanceOf",
      "outputs": [
        {
          "internalType": "uint256",
          "name": "",
          "type": "uint256"
        }
      ],
      "stateMutability": "view",
      "type": "function"
    },
    {
      "inputs": [
        {
          "internalType": "address[]",
          "name": "accounts",
          "type": "address[]"
        },
        {
          "internalType": "uint256[]",
          "name": "ids",
          "type": "uint256[]"
        }
      ],
      "name": "balanceOfBatch",
      "outputs": [
        {
          "internalType": "uint256[]",
          "name": "",
          "type": "uint256[]"
        }
      ],
      "stateMutability": "view",
      "type": "function"
    },
    {
      "inputs": [
        {
          "internalType": "address",
          "name": "account",
          "type": "address"
        },
        {
          "internalType": "address",
          "name": "operator",
          "type": "address"
        }
      ],
      "name": "isApprovedForAll",
      "outputs": [
        {
          "internalType": "bool",
          "name": "",
          "type": "bool"
        }
      ],
      "stateMutability": "view",
      "type": "function"
    },
    {
      "inputs": [
        {
          "internalType": "address",
          "name": "from",
          "type": "address"
        },
        {
          "internalType": "address",
          "name": "to",
          "type": "address"
        },
        {
          "internalType": "address",
          "name": "token",
          "type": "address"
        },
        {
          "internalType": "uint256",
          "name": "amount",
          "type": "uint256"
        },
        {
          "internalType": "bytes",
          "name": "paymentId",
          "type": "bytes"
        }
      ],
      "name": "payFrom",
      "outputs": [],
      "stateMutability": "nonpayable",
      "type": "function"
    },
    {
      "inputs": [
        {
          "internalType": "address",
          "name": "from",
          "type": "address"
        },
        {
          "internalType": "address",
          "name": "to",
          "type": "address"
        },
        {
          "internalType": "bytes",
          "name": "paymentId",
          "type": "bytes"
        }
      ],
      "name": "payNativeFrom",
      "outputs": [],
      "stateMutability": "payable",
      "type": "function"
    },
    {
      "inputs": [
        {
          "internalType": "address",
          "name": "from",
          "type": "address"
        },
        {
          "internalType": "address",
          "name": "to",
          "type": "address"
        },
        {
          "internalType": "uint256[]",
          "name": "ids",
          "type": "uint256[]"
        },
        {
          "internalType": "uint256[]",
          "name": "amounts",
          "type": "uint256[]"
        },
        {
          "internalType": "bytes",
          "name": "data",
          "type": "bytes"
        }
      ],
      "name": "safeBatchTransferFrom",
      "outputs": [],
      "stateMutability": "nonpayable",
      "type": "function"
    },
    {
      "inputs": [
        {
          "internalType": "address",
          "name": "from",
          "type": "address"
        },
        {
          "internalType": "address",
          "name": "to",
          "type": "address"
        },
        {
          "internalType": "uint256",
          "name": "id",
          "type": "uint256"
        },
        {
          "internalType": "uint256",
          "name": "amount",
          "type": "uint256"
        },
        {
          "internalType": "bytes",
          "name": "data",
          "type": "bytes"
        }
      ],
      "name": "safeTransferFrom",
      "outputs": [],
      "stateMutability": "nonpayable",
      "type": "function"
    },
    {
      "inputs": [
        {
          "internalType": "address",
          "name": "operator",
          "type": "address"
        },
        {
          "internalType": "bool",
          "name": "approved",
          "type": "bool"
        }
      ],
      "name": "setApprovalForAll",
      "outputs": [],
      "stateMutability": "nonpayable",
      "type": "function"
    },
    {
      "inputs": [
        {
          "internalType": "bytes4",
          "name": "interfaceId",
          "type": "bytes4"
        }
      ],
      "name": "supportsInterface",
      "outputs": [
        {
          "internalType": "bool",
          "name": "",
          "type": "bool"
        }
      ],
      "stateMutability": "view",
      "type": "function"
    },
    {
      "inputs": [
        {
          "internalType": "uint256",
          "name": "",
          "type": "uint256"
        }
      ],
      "name": "uri",
      "outputs": [
        {
          "internalType": "string",
          "name": "",
          "type": "string"
        }
      ],
      "stateMutability": "view",
      "type": "function"
    },
    {
      "inputs": [
        {
          "internalType": "address",
          "name": "to",
          "type": "address"
        },
        {
          "internalType": "uint256",
          "name": "amount",
          "type": "uint256"
        }
      ],
      "name": "withdrawEthTo",
      "outputs": [],
      "stateMutability": "nonpayable",
      "type": "function"
    },
    {
      "inputs": [
        {
          "internalType": "address",
          "name": "to",
          "type": "address"
        },
        {
          "internalType": "address",
          "name": "token",
          "type": "address"
        },
        {
          "internalType": "uint256",
          "name": "amount",
          "type": "uint256"
        }
      ],
      "name": "withdrawTo",
      "outputs": [],
      "stateMutability": "nonpayable",
      "type": "function"
    },
    {
      "inputs": [
        {
          "internalType": "address[]",
          "name": "accounts",
          "type": "address[]"
        },
        {
          "internalType": "address[]",
          "name": "tokens",
          "type": "address[]"
        },
        {
          "internalType": "uint256[]",
          "name": "amounts",
          "type": "uint256[]"
        }
      ],
      "name": "withdrawToBatch",
      "outputs": [],
      "stateMutability": "nonpayable",
      "type": "function"
    },
    {
      "stateMutability": "payable",
      "type": "receive"
    }
  ],
  "bytecode": "0x60806040523480156200001157600080fd5b506040516200324f3803806200324f83398101604081905262000034916200015a565b81620000408162000068565b50600380546001600160a01b0319166001600160a01b03929092169190911790555062000288565b80516200007d90600290602084019062000081565b5050565b8280546200008f906200024b565b90600052602060002090601f016020900481019282620000b35760008555620000fe565b82601f10620000ce57805160ff1916838001178555620000fe565b82800160010185558215620000fe579182015b82811115620000fe578251825591602001919060010190620000e1565b506200010c92915062000110565b5090565b5b808211156200010c576000815560010162000111565b634e487b7160e01b600052604160045260246000fd5b80516001600160a01b03811681146200015557600080fd5b919050565b600080604083850312156200016e57600080fd5b82516001600160401b03808211156200018657600080fd5b818501915085601f8301126200019b57600080fd5b815181811115620001b057620001b062000127565b604051601f8201601f19908116603f01168101908382118183101715620001db57620001db62000127565b81604052828152602093508884848701011115620001f857600080fd5b600091505b828210156200021c5784820184015181830185015290830190620001fd565b828211156200022e5760008484830101525b9550620002409150508582016200013d565b925050509250929050565b600181811c908216806200026057607f821691505b602082108114156200028257634e487b7160e01b600052602260045260246000fd5b50919050565b612fb780620002986000396000f3fe6080604052600436106100d55760003560e01c80634e1273f41161007f578063c3b35a7e11610059578063c3b35a7e14610233578063d0da080d14610253578063e985e9c514610273578063f242432a146102c957600080fd5b80634e1273f4146101c6578063a22cb465146101f3578063c33af2501461021357600080fd5b80632eb2c2d6116100b05780632eb2c2d6146101715780633a46ab091461019357806342f567ae146101b357600080fd5b8062fdd58e146100e157806301ffc9a7146101145780630e89341c1461014457600080fd5b366100dc57005b600080fd5b3480156100ed57600080fd5b506101016100fc3660046124dc565b6102e9565b6040519081526020015b60405180910390f35b34801561012057600080fd5b5061013461012f366004612537565b6103c6565b604051901515815260200161010b565b34801561015057600080fd5b5061016461015f36600461255b565b6104ab565b60405161010b91906125ea565b34801561017d57600080fd5b5061019161018c36600461279e565b61053f565b005b34801561019f57600080fd5b506101916101ae366004612848565b610608565b6101916101c13660046128b4565b610695565b3480156101d257600080fd5b506101e66101e136600461297f565b6107ae565b60405161010b9190612a1e565b3480156101ff57600080fd5b5061019161020e366004612a3f565b610906565b34801561021f57600080fd5b5061019161022e3660046124dc565b610915565b34801561023f57600080fd5b5061019161024e366004612a76565b610a2c565b34801561025f57600080fd5b5061019161026e366004612ab2565b610abf565b34801561027f57600080fd5b5061013461028e366004612b30565b73ffffffffffffffffffffffffffffffffffffffff918216600090815260016020908152604080832093909416825291909152205460ff1690565b3480156102d557600080fd5b506101916102e4366004612b63565b610ddc565b600073ffffffffffffffffffffffffffffffffffffffff8316610393576040517f08c379a000000000000000000000000000000000000000000000000000000000815260206004820152602a60248201527f455243313135353a2061646472657373207a65726f206973206e6f742061207660448201527f616c6964206f776e65720000000000000000000000000000000000000000000060648201526084015b60405180910390fd5b5060009081526020818152604080832073ffffffffffffffffffffffffffffffffffffffff949094168352929052205490565b60007fffffffff0000000000000000000000000000000000000000000000000000000082167fd9b67a2600000000000000000000000000000000000000000000000000000000148061045957507fffffffff0000000000000000000000000000000000000000000000000000000082167f0e89341c00000000000000000000000000000000000000000000000000000000145b806104a557507f01ffc9a7000000000000000000000000000000000000000000000000000000007fffffffff000000000000000000000000000000000000000000000000000000008316145b92915050565b6060600280546104ba90612bbc565b80601f01602080910402602001604051908101604052809291908181526020018280546104e690612bbc565b80156105335780601f1061050857610100808354040283529160200191610533565b820191906000526020600020905b81548152906001019060200180831161051657829003601f168201915b50505050509050919050565b73ffffffffffffffffffffffffffffffffffffffff85163314806105685750610568853361028e565b6105f4576040517f08c379a000000000000000000000000000000000000000000000000000000000815260206004820152602e60248201527f455243313135353a2063616c6c6572206973206e6f7420746f6b656e206f776e60448201527f6572206f7220617070726f766564000000000000000000000000000000000000606482015260840161038a565b6106018585858585610e9e565b5050505050565b610614838630856111d8565b73ffffffffffffffffffffffffffffffffffffffff8316610637858285856112ba565b8473ffffffffffffffffffffffffffffffffffffffff167f7f1c8f0f54a7c6bb9ff83b33ac16eba6fcd54c87ef2fb523bfc6a68e2f63dafa4288878787604051610685959493929190612c10565b60405180910390a2505050505050565b6003546040517ff7a4409a00000000000000000000000000000000000000000000000000000000815230600482015273ffffffffffffffffffffffffffffffffffffffff9091169063f7a4409a9034906024016000604051808303818588803b15801561070157600080fd5b505af1158015610715573d6000803e3d6000fd5b50506003546000935073ffffffffffffffffffffffffffffffffffffffff16915061073d9050565b905061074b838234856112ba565b60035460405173ffffffffffffffffffffffffffffffffffffffff808616927f7f1c8f0f54a7c6bb9ff83b33ac16eba6fcd54c87ef2fb523bfc6a68e2f63dafa926107a09242928a9291169034908990612c10565b60405180910390a250505050565b60608151835114610841576040517f08c379a000000000000000000000000000000000000000000000000000000000815260206004820152602960248201527f455243313135353a206163636f756e747320616e6420696473206c656e67746860448201527f206d69736d617463680000000000000000000000000000000000000000000000606482015260840161038a565b6000835167ffffffffffffffff81111561085d5761085d6125fd565b604051908082528060200260200182016040528015610886578160200160208202803683370190505b50905060005b84518110156108fe576108d18582815181106108aa576108aa612c55565b60200260200101518583815181106108c4576108c4612c55565b60200260200101516102e9565b8282815181106108e3576108e3612c55565b60209081029190910101526108f781612cb3565b905061088c565b509392505050565b61091133838361142b565b5050565b60035473ffffffffffffffffffffffffffffffffffffffff1661093a335b828461157f565b6003546040517fc12ea3ca00000000000000000000000000000000000000000000000000000000815273ffffffffffffffffffffffffffffffffffffffff8581166004830152602482018590529091169063c12ea3ca90604401600060405180830381600087803b1580156109ae57600080fd5b505af11580156109c2573d6000803e3d6000fd5b50506003546040805142815273ffffffffffffffffffffffffffffffffffffffff88811660208301529092168282015260608201869052517f79284c888c6b74ccb18547b558374e7f43b1f212f96152024f7485dabf2a70fe9350908190036080019150a1505050565b73ffffffffffffffffffffffffffffffffffffffff8216610a4c33610933565b610a57838584611789565b6040805142815273ffffffffffffffffffffffffffffffffffffffff8087166020830152851691810191909152606081018390527f79284c888c6b74ccb18547b558374e7f43b1f212f96152024f7485dabf2a70fe906080015b60405180910390a150505050565b8151835114610b50576040517f08c379a000000000000000000000000000000000000000000000000000000000815260206004820152602c60248201527f4a616e65446f653a206163636f756e747320616e6420746f6b656e73206c656e60448201527f677468206d69736d617463680000000000000000000000000000000000000000606482015260840161038a565b6000825167ffffffffffffffff811115610b6c57610b6c6125fd565b604051908082528060200260200182016040528015610b95578160200160208202803683370190505b50905060005b8351811015610c0757610bda848281518110610bb957610bb9612c55565b602002602001015173ffffffffffffffffffffffffffffffffffffffff1690565b828281518110610bec57610bec612c55565b6020908102919091010152610c0081612cb3565b9050610b9b565b50610c133382846117e4565b60005b8351811015610da657600354845173ffffffffffffffffffffffffffffffffffffffff90911690859083908110610c4f57610c4f612c55565b602002602001015173ffffffffffffffffffffffffffffffffffffffff161415610d4057600354855173ffffffffffffffffffffffffffffffffffffffff9091169063c12ea3ca90879084908110610ca957610ca9612c55565b6020026020010151858481518110610cc357610cc3612c55565b60200260200101516040518363ffffffff1660e01b8152600401610d0992919073ffffffffffffffffffffffffffffffffffffffff929092168252602082015260400190565b600060405180830381600087803b158015610d2357600080fd5b505af1158015610d37573d6000803e3d6000fd5b50505050610d96565b610d96848281518110610d5557610d55612c55565b6020026020010151868381518110610d6f57610d6f612c55565b6020026020010151858481518110610d8957610d89612c55565b6020026020010151611789565b610d9f81612cb3565b9050610c16565b507f044f87ba31ff18b8ef478b6a142c0dda5fdebcbe95ed72f173b0c7d2b6ee595342858585604051610ab19493929190612d32565b73ffffffffffffffffffffffffffffffffffffffff8516331480610e055750610e05853361028e565b610e91576040517f08c379a000000000000000000000000000000000000000000000000000000000815260206004820152602e60248201527f455243313135353a2063616c6c6572206973206e6f7420746f6b656e206f776e60448201527f6572206f7220617070726f766564000000000000000000000000000000000000606482015260840161038a565b6106018585858585611b0b565b8151835114610f2f576040517f08c379a000000000000000000000000000000000000000000000000000000000815260206004820152602860248201527f455243313135353a2069647320616e6420616d6f756e7473206c656e6774682060448201527f6d69736d61746368000000000000000000000000000000000000000000000000606482015260840161038a565b73ffffffffffffffffffffffffffffffffffffffff8416610fd2576040517f08c379a000000000000000000000000000000000000000000000000000000000815260206004820152602560248201527f455243313135353a207472616e7366657220746f20746865207a65726f20616460448201527f6472657373000000000000000000000000000000000000000000000000000000606482015260840161038a565b3360005b8451811015611143576000858281518110610ff357610ff3612c55565b60200260200101519050600085838151811061101157611011612c55565b6020908102919091018101516000848152808352604080822073ffffffffffffffffffffffffffffffffffffffff8e1683529093529190912054909150818110156110de576040517f08c379a000000000000000000000000000000000000000000000000000000000815260206004820152602a60248201527f455243313135353a20696e73756666696369656e742062616c616e636520666f60448201527f72207472616e7366657200000000000000000000000000000000000000000000606482015260840161038a565b60008381526020818152604080832073ffffffffffffffffffffffffffffffffffffffff8e8116855292528083208585039055908b16825281208054849290611128908490612d71565b925050819055505050508061113c90612cb3565b9050610fd6565b508473ffffffffffffffffffffffffffffffffffffffff168673ffffffffffffffffffffffffffffffffffffffff168273ffffffffffffffffffffffffffffffffffffffff167f4a39dc06d4c0dbc64b70af90fd698a233a518aa5d07e595d983b8c0526c8f7fb87876040516111ba929190612d89565b60405180910390a46111d0818787878787611d49565b505050505050565b60405173ffffffffffffffffffffffffffffffffffffffff808516602483015283166044820152606481018290526112b49085907f23b872dd00000000000000000000000000000000000000000000000000000000906084015b604080517fffffffffffffffffffffffffffffffffffffffffffffffffffffffffffffffe08184030181529190526020810180517bffffffffffffffffffffffffffffffffffffffffffffffffffffffff167fffffffff0000000000000000000000000000000000000000000000000000000090931692909217909152611fd4565b50505050565b73ffffffffffffffffffffffffffffffffffffffff841661135d576040517f08c379a000000000000000000000000000000000000000000000000000000000815260206004820152602160248201527f455243313135353a206d696e7420746f20746865207a65726f2061646472657360448201527f7300000000000000000000000000000000000000000000000000000000000000606482015260840161038a565b336000611369856120e3565b90506000611376856120e3565b905060008681526020818152604080832073ffffffffffffffffffffffffffffffffffffffff8b168452909152812080548792906113b5908490612d71565b9091555050604080518781526020810187905273ffffffffffffffffffffffffffffffffffffffff808a1692600092918716917fc3d58168c5ae7397731d063d5bbf3d657854427343f4c083240f7aacaa2d0f62910160405180910390a46114228360008989898961212e565b50505050505050565b8173ffffffffffffffffffffffffffffffffffffffff168373ffffffffffffffffffffffffffffffffffffffff1614156114e7576040517f08c379a000000000000000000000000000000000000000000000000000000000815260206004820152602960248201527f455243313135353a2073657474696e6720617070726f76616c2073746174757360448201527f20666f722073656c660000000000000000000000000000000000000000000000606482015260840161038a565b73ffffffffffffffffffffffffffffffffffffffff83811660008181526001602090815260408083209487168084529482529182902080547fffffffffffffffffffffffffffffffffffffffffffffffffffffffffffffff001686151590811790915591519182527f17307eab39ab6107e8899845ad3d59bd9653f200f220920489ca2b5937696c31910160405180910390a3505050565b73ffffffffffffffffffffffffffffffffffffffff8316611622576040517f08c379a000000000000000000000000000000000000000000000000000000000815260206004820152602360248201527f455243313135353a206275726e2066726f6d20746865207a65726f206164647260448201527f6573730000000000000000000000000000000000000000000000000000000000606482015260840161038a565b33600061162e846120e3565b9050600061163b846120e3565b604080516020808201835260009182905288825281815282822073ffffffffffffffffffffffffffffffffffffffff8b1683529052205490915084811015611704576040517f08c379a0000000000000000000000000000000000000000000000000000000008152602060048201526024808201527f455243313135353a206275726e20616d6f756e7420657863656564732062616c60448201527f616e636500000000000000000000000000000000000000000000000000000000606482015260840161038a565b60008681526020818152604080832073ffffffffffffffffffffffffffffffffffffffff8b81168086529184528285208a8703905582518b81529384018a90529092908816917fc3d58168c5ae7397731d063d5bbf3d657854427343f4c083240f7aacaa2d0f62910160405180910390a4604080516020810190915260009052611422565b60405173ffffffffffffffffffffffffffffffffffffffff83166024820152604481018290526117df9084907fa9059cbb0000000000000000000000000000000000000000000000000000000090606401611232565b505050565b73ffffffffffffffffffffffffffffffffffffffff8316611887576040517f08c379a000000000000000000000000000000000000000000000000000000000815260206004820152602360248201527f455243313135353a206275726e2066726f6d20746865207a65726f206164647260448201527f6573730000000000000000000000000000000000000000000000000000000000606482015260840161038a565b8051825114611918576040517f08c379a000000000000000000000000000000000000000000000000000000000815260206004820152602860248201527f455243313135353a2069647320616e6420616d6f756e7473206c656e6774682060448201527f6d69736d61746368000000000000000000000000000000000000000000000000606482015260840161038a565b604080516020810190915260009081905233905b8351811015611a7757600084828151811061194957611949612c55565b60200260200101519050600084838151811061196757611967612c55565b6020908102919091018101516000848152808352604080822073ffffffffffffffffffffffffffffffffffffffff8c168352909352919091205490915081811015611a33576040517f08c379a0000000000000000000000000000000000000000000000000000000008152602060048201526024808201527f455243313135353a206275726e20616d6f756e7420657863656564732062616c60448201527f616e636500000000000000000000000000000000000000000000000000000000606482015260840161038a565b60009283526020838152604080852073ffffffffffffffffffffffffffffffffffffffff8b1686529091529092209103905580611a6f81612cb3565b91505061192c565b50600073ffffffffffffffffffffffffffffffffffffffff168473ffffffffffffffffffffffffffffffffffffffff168273ffffffffffffffffffffffffffffffffffffffff167f4a39dc06d4c0dbc64b70af90fd698a233a518aa5d07e595d983b8c0526c8f7fb8686604051611aef929190612d89565b60405180910390a46040805160208101909152600090526112b4565b73ffffffffffffffffffffffffffffffffffffffff8416611bae576040517f08c379a000000000000000000000000000000000000000000000000000000000815260206004820152602560248201527f455243313135353a207472616e7366657220746f20746865207a65726f20616460448201527f6472657373000000000000000000000000000000000000000000000000000000606482015260840161038a565b336000611bba856120e3565b90506000611bc7856120e3565b905060008681526020818152604080832073ffffffffffffffffffffffffffffffffffffffff8c16845290915290205485811015611c87576040517f08c379a000000000000000000000000000000000000000000000000000000000815260206004820152602a60248201527f455243313135353a20696e73756666696369656e742062616c616e636520666f60448201527f72207472616e7366657200000000000000000000000000000000000000000000606482015260840161038a565b60008781526020818152604080832073ffffffffffffffffffffffffffffffffffffffff8d8116855292528083208985039055908a16825281208054889290611cd1908490612d71565b9091555050604080518881526020810188905273ffffffffffffffffffffffffffffffffffffffff808b16928c821692918816917fc3d58168c5ae7397731d063d5bbf3d657854427343f4c083240f7aacaa2d0f62910160405180910390a4611d3e848a8a8a8a8a61212e565b505050505050505050565b73ffffffffffffffffffffffffffffffffffffffff84163b156111d0576040517fbc197c8100000000000000000000000000000000000000000000000000000000815273ffffffffffffffffffffffffffffffffffffffff85169063bc197c8190611dc09089908990889088908890600401612db7565b6020604051808303816000875af1925050508015611e19575060408051601f3d9081017fffffffffffffffffffffffffffffffffffffffffffffffffffffffffffffffe0168201909252611e1691810190612e22565b60015b611f0357611e25612e3f565b806308c379a01415611e795750611e3a612e5b565b80611e455750611e7b565b806040517f08c379a000000000000000000000000000000000000000000000000000000000815260040161038a91906125ea565b505b6040517f08c379a000000000000000000000000000000000000000000000000000000000815260206004820152603460248201527f455243313135353a207472616e7366657220746f206e6f6e2d4552433131353560448201527f526563656976657220696d706c656d656e746572000000000000000000000000606482015260840161038a565b7fffffffff0000000000000000000000000000000000000000000000000000000081167fbc197c810000000000000000000000000000000000000000000000000000000014611422576040517f08c379a000000000000000000000000000000000000000000000000000000000815260206004820152602860248201527f455243313135353a204552433131353552656365697665722072656a6563746560448201527f6420746f6b656e73000000000000000000000000000000000000000000000000606482015260840161038a565b6000612036826040518060400160405280602081526020017f5361666545524332303a206c6f772d6c6576656c2063616c6c206661696c65648152508573ffffffffffffffffffffffffffffffffffffffff166122db9092919063ffffffff16565b90508051600014806120575750808060200190518101906120579190612f03565b6117df576040517f08c379a000000000000000000000000000000000000000000000000000000000815260206004820152602a60248201527f5361666545524332303a204552433230206f7065726174696f6e20646964206e60448201527f6f74207375636365656400000000000000000000000000000000000000000000606482015260840161038a565b6040805160018082528183019092526060916000919060208083019080368337019050509050828160008151811061211d5761211d612c55565b602090810291909101015292915050565b73ffffffffffffffffffffffffffffffffffffffff84163b156111d0576040517ff23a6e6100000000000000000000000000000000000000000000000000000000815273ffffffffffffffffffffffffffffffffffffffff85169063f23a6e61906121a59089908990889088908890600401612f20565b6020604051808303816000875af19250505080156121fe575060408051601f3d9081017fffffffffffffffffffffffffffffffffffffffffffffffffffffffffffffffe01682019092526121fb91810190612e22565b60015b61220a57611e25612e3f565b7fffffffff0000000000000000000000000000000000000000000000000000000081167ff23a6e610000000000000000000000000000000000000000000000000000000014611422576040517f08c379a000000000000000000000000000000000000000000000000000000000815260206004820152602860248201527f455243313135353a204552433131353552656365697665722072656a6563746560448201527f6420746f6b656e73000000000000000000000000000000000000000000000000606482015260840161038a565b60606122ea84846000856122f2565b949350505050565b606082471015612384576040517f08c379a000000000000000000000000000000000000000000000000000000000815260206004820152602660248201527f416464726573733a20696e73756666696369656e742062616c616e636520666f60448201527f722063616c6c0000000000000000000000000000000000000000000000000000606482015260840161038a565b6000808673ffffffffffffffffffffffffffffffffffffffff1685876040516123ad9190612f65565b60006040518083038185875af1925050503d80600081146123ea576040519150601f19603f3d011682016040523d82523d6000602084013e6123ef565b606091505b50915091506124008783838761240b565b979650505050505050565b6060831561249e5782516124975773ffffffffffffffffffffffffffffffffffffffff85163b612497576040517f08c379a000000000000000000000000000000000000000000000000000000000815260206004820152601d60248201527f416464726573733a2063616c6c20746f206e6f6e2d636f6e7472616374000000604482015260640161038a565b50816122ea565b6122ea8383815115611e455781518083602001fd5b803573ffffffffffffffffffffffffffffffffffffffff811681146124d757600080fd5b919050565b600080604083850312156124ef57600080fd5b6124f8836124b3565b946020939093013593505050565b7fffffffff000000000000000000000000000000000000000000000000000000008116811461253457600080fd5b50565b60006020828403121561254957600080fd5b813561255481612506565b9392505050565b60006020828403121561256d57600080fd5b5035919050565b60005b8381101561258f578181015183820152602001612577565b838111156112b45750506000910152565b600081518084526125b8816020860160208601612574565b601f017fffffffffffffffffffffffffffffffffffffffffffffffffffffffffffffffe0169290920160200192915050565b60208152600061255460208301846125a0565b7f4e487b7100000000000000000000000000000000000000000000000000000000600052604160045260246000fd5b7fffffffffffffffffffffffffffffffffffffffffffffffffffffffffffffffe0601f830116810181811067ffffffffffffffff82111715612670576126706125fd565b6040525050565b600067ffffffffffffffff821115612691576126916125fd565b5060051b60200190565b600082601f8301126126ac57600080fd5b813560206126b982612677565b6040516126c6828261262c565b83815260059390931b85018201928281019150868411156126e657600080fd5b8286015b8481101561270157803583529183019183016126ea565b509695505050505050565b600082601f83011261271d57600080fd5b813567ffffffffffffffff811115612737576127376125fd565b60405161276c60207fffffffffffffffffffffffffffffffffffffffffffffffffffffffffffffffe0601f850116018261262c565b81815284602083860101111561278157600080fd5b816020850160208301376000918101602001919091529392505050565b600080600080600060a086880312156127b657600080fd5b6127bf866124b3565b94506127cd602087016124b3565b9350604086013567ffffffffffffffff808211156127ea57600080fd5b6127f689838a0161269b565b9450606088013591508082111561280c57600080fd5b61281889838a0161269b565b9350608088013591508082111561282e57600080fd5b5061283b8882890161270c565b9150509295509295909350565b600080600080600060a0868803121561286057600080fd5b612869866124b3565b9450612877602087016124b3565b9350612885604087016124b3565b925060608601359150608086013567ffffffffffffffff8111156128a857600080fd5b61283b8882890161270c565b6000806000606084860312156128c957600080fd5b6128d2846124b3565b92506128e0602085016124b3565b9150604084013567ffffffffffffffff8111156128fc57600080fd5b6129088682870161270c565b9150509250925092565b600082601f83011261292357600080fd5b8135602061293082612677565b60405161293d828261262c565b83815260059390931b850182019282810191508684111561295d57600080fd5b8286015b8481101561270157612972816124b3565b8352918301918301612961565b6000806040838503121561299257600080fd5b823567ffffffffffffffff808211156129aa57600080fd5b6129b686838701612912565b935060208501359150808211156129cc57600080fd5b506129d98582860161269b565b9150509250929050565b600081518084526020808501945080840160005b83811015612a13578151875295820195908201906001016129f7565b509495945050505050565b60208152600061255460208301846129e3565b801515811461253457600080fd5b60008060408385031215612a5257600080fd5b612a5b836124b3565b91506020830135612a6b81612a31565b809150509250929050565b600080600060608486031215612a8b57600080fd5b612a94846124b3565b9250612aa2602085016124b3565b9150604084013590509250925092565b600080600060608486031215612ac757600080fd5b833567ffffffffffffffff80821115612adf57600080fd5b612aeb87838801612912565b94506020860135915080821115612b0157600080fd5b612b0d87838801612912565b93506040860135915080821115612b2357600080fd5b506129088682870161269b565b60008060408385031215612b4357600080fd5b612b4c836124b3565b9150612b5a602084016124b3565b90509250929050565b600080600080600060a08688031215612b7b57600080fd5b612b84866124b3565b9450612b92602087016124b3565b93506040860135925060608601359150608086013567ffffffffffffffff8111156128a857600080fd5b600181811c90821680612bd057607f821691505b60208210811415612c0a577f4e487b7100000000000000000000000000000000000000000000000000000000600052602260045260246000fd5b50919050565b858152600073ffffffffffffffffffffffffffffffffffffffff808716602084015280861660408401525083606083015260a0608083015261240060a08301846125a0565b7f4e487b7100000000000000000000000000000000000000000000000000000000600052603260045260246000fd5b7f4e487b7100000000000000000000000000000000000000000000000000000000600052601160045260246000fd5b60007fffffffffffffffffffffffffffffffffffffffffffffffffffffffffffffffff821415612ce557612ce5612c84565b5060010190565b600081518084526020808501945080840160005b83811015612a1357815173ffffffffffffffffffffffffffffffffffffffff1687529582019590820190600101612d00565b848152608060208201526000612d4b6080830186612cec565b8281036040840152612d5d8186612cec565b9050828103606084015261240081856129e3565b60008219821115612d8457612d84612c84565b500190565b604081526000612d9c60408301856129e3565b8281036020840152612dae81856129e3565b95945050505050565b600073ffffffffffffffffffffffffffffffffffffffff808816835280871660208401525060a06040830152612df060a08301866129e3565b8281036060840152612e0281866129e3565b90508281036080840152612e1681856125a0565b98975050505050505050565b600060208284031215612e3457600080fd5b815161255481612506565b600060033d1115612e585760046000803e5060005160e01c5b90565b600060443d1015612e695790565b6040517ffffffffffffffffffffffffffffffffffffffffffffffffffffffffffffffffc803d016004833e81513d67ffffffffffffffff8160248401118184111715612eb757505050505090565b8285019150815181811115612ecf5750505050505090565b843d8701016020828501011115612ee95750505050505090565b612ef86020828601018761262c565b509095945050505050565b600060208284031215612f1557600080fd5b815161255481612a31565b600073ffffffffffffffffffffffffffffffffffffffff808816835280871660208401525084604083015283606083015260a0608083015261240060a08301846125a0565b60008251612f77818460208701612574565b919091019291505056fea2646970667358221220e5373f9cc25771e38c22dd981a08a07dd82b9a03b568a26c8b69daff99155a6364736f6c634300080b0033",
  "linkReferences": {},
  "deployedLinkReferences": {}
}